:020000040800F2
:1000000000040020FD020008FF020008FF020008B3
:10001000FF020008FF020008FF020008FF020008BC
:10002000FF020008FF020008FF020008A13C0008D0
:10003000FF020008FF020008FF020008FF0200089C
:10004000FF020008FF020008FF020008FF0200088C
:10005000FF020008FF020008FF020008FF0200087C
:10006000FF020008FF020008FF020008012E00083E
:10007000A12E0008412F0008E12F00088130000860
:1000800021310008C1310008D12C0008FF0200080E
:10009000FF020008FF020008FF020008FF0200083C
:1000A000FF020008FF020008212A0008FF020008E2
:1000B000FF020008FF020008FF020008FF0200081C
:1000C000FF02000801380008313A0008FF0200086A
:1000D000FF020008FF020008D1260008FF02000806
:1000E000FF020008FF020008FF020008FF020008EC
:1000F000FF020008FF020008FF020008613200084A
:10010000FF020008FF020008E12A0008FF020008C1
:10011000FF020008FF020008FF020008FF020008BB
:1001200001330008A133000841340008E13400081D
:1001300081350008FF020008FF020008FF020008E6
:10014000FF020008FF020008FF020008FF0200088B
:1001500021360008C136000861370008FF02000898
:10016000FF020008FF020008FF020008FF0200086B
:10017000FF020008FF020008FF020008FF0200085B
:10018000FF020008FF020008FF020008FF0200084B
:10019000FF020008FF020008FF020008FF0200083B
:1001A000FF020008FF020008FF020008FF0200082B
:1001B000FF020008FF020008FF020008FF0200081B
:1001C000FF020008FF020008FF020008FF0200080B
:1001D000FF020008FF020008FF020008FF020008FB
:1001E00072B6374880F30888364880F30988364865
:1001F0003649086040F20000CCF200004EF634713F
:10020000CEF200010860BFF34F8FBFF36F8F40F253
:100210000000C0F2F0004EF68851CEF200010860F6
:10022000BFF34F8FBFF36F8F4FF00000E1EE100A66
:100230004EF63C71CEF200010860062080F314886F
:10024000BFF36F8F02F06CF803F03AFD4FF05530BA
:100250001F491B4A91423CBF41F8040BFAE71D4974
:10026000184A91423CBF41F8040BFAE71A491B4A6D
:100270001B4B9A423EBF51F8040B42F8040BF8E7BF
:1002800000201849184A91423CBF41F8040BFAE794
:1002900002F05EF802F04CF8144C154DAC4203DA53
:1002A00054F8041B8847F9E703F0DAFD114C124DAE
:1002B000AC4203DA54F8041B8847F9E702F040B86F
:1002C00000040020000800200000000808ED00E005
:1002D0000000002000040020244A0008000800203C
:1002E000000800200008002070180020E00100082D
:1002F000E0010008E0010008E001000870E700F0FC
:1003000000F8FEE72DE9F04F2DED108AC1F80CD072
:10031000C3689D46BDEC108ABDE8F08F02F050F82E
:10032000002383F311882846A047002003F078FCBF
:10033000FEE702F05DF803F043FC02F041F800DF55
:10034000FEE70000844641EA000313F003036DD189
:10035000403A41D351F8043B40F8043B51F8043B88
:1003600040F8043B51F8043B40F8043B51F8043B8F
:1003700040F8043B51F8043B40F8043B51F8043B7F
:1003800040F8043B51F8043B40F8043B51F8043B6F
:1003900040F8043B51F8043B40F8043B51F8043B5F
:1003A00040F8043B51F8043B40F8043B51F8043B4F
:1003B00040F8043B51F8043B40F8043B51F8043B3F
:1003C00040F8043B51F8043B40F8043B51F8043B2F
:1003D00040F8043B403ABDD2303211D351F8043BCF
:1003E00040F8043B51F8043B40F8043B51F8043B0F
:1003F00040F8043B51F8043B40F8043B103AEDD27E
:100400000C3205D351F8043B40F8043B043AF9D2CE
:10041000043208D0D2071CBF11F8013B00F8013BA1
:1004200001D30B8803806046704700BF082A13D3AE
:100430008B078DD010F003038AD0C3F10403D21AC6
:10044000DB071CBF11F8013B00F8013B80D331F8FA
:10045000023B20F8023B7BE7043AD9D3013A11F87A
:10046000013B00F8013BF9D20B7803704B784370E5
:100470008B7883706046704770B54FF0FF0C4CF47A
:10048000E06C1CEA11541DBF1CEA135594EA0C0FD2
:1004900095EA0C0F00F0DEF82C4481EA030621EA0D
:1004A0004C5123EA4C5350EA013518BF52EA033548
:1004B00041F4801143F4801338D0A0FB02CE4FF0FA
:1004C0000005E1FB02E506F00042E0FB03E54FF02A
:1004D0000006E1FB03569CF0000F18BF4EF0010E22
:1004E000A4F1FF04B6F5007F64F5407404D25FEA1E
:1004F0004E0E6D4146EB060642EAC62141EA5551D1
:100500004FEAC52040EA5E504FEACE2EB4F1FD0C12
:1005100088BFBCF5E06F1ED8BEF1004F08BF5FEA90
:10052000500E50F1000041EB045170BD06F0004642
:1005300046EA010140EA020081EA0301B4EB5C04EF
:10054000C2BFD4EB0C0541EA045170BD41F48011E7
:100550004FF0000E013C00F3AB8014F1360FDEBF0C
:10056000002001F0004170BDC4F10004203C35DAE8
:100570000C341BDC04F11404C4F1200500FA05F36B
:1005800020FA04F001FA05F240EA020001F000420C
:1005900021F0004110EBD37021FA04F642EB060182
:1005A0005EEA430E08BF20EAD37070BDC4F10C04AC
:1005B000C4F1200500FA04F320FA05F001FA04F270
:1005C00040EA020001F0004110EBD37041F100015C
:1005D0005EEA430E08BF20EAD37070BDC4F1200567
:1005E00000FA05F24EEA020E20FA04F301FA05F2CF
:1005F00043EA020321FA04F001F0004121FA04F277
:1006000020EA020000EBD3705EEA430E08BF20EA46
:10061000D37070BD94F0000F0FD101F00046400080
:1006200041EB010111F4801F08BF013CF7D041EA02
:10063000060195F0000F18BF704703F00046520006
:1006400043EB030313F4801F08BF013DF7D043EAD7
:100650000603704794EA0C0F0CEA135518BF95EA8D
:100660000C0F0CD050EA410618BF52EA4306D1D114
:1006700081EA030101F000414FF0000070BD50EA33
:10068000410606BF1046194652EA430619D094EABD
:100690000C0F02D150EA013613D195EA0C0F05D1A7
:1006A00052EA03361CBF104619460AD181EA0301FB
:1006B00001F0004141F0FE4141F470014FF00000B3
:1006C00070BD41F0FE4141F4780170BD81F0004100
:1006D00002E000BF83F0004330B54FEA41044FEA27
:1006E000430594EA050F08BF90EA020F1FBF54EAC2
:1006F000000C55EA020C7FEA645C7FEA655C00F05E
:10070000E2804FEA5454D4EB5555B8BF6D420CDD2E
:100710002C4480EA020281EA030382EA000083EAB1
:10072000010180EA020281EA0303362D88BF30BD51
:1007300011F0004F4FEA01314FF4801C4CEA1131A7
:1007400002D0404261EB410113F0004F4FEA033306
:100750004CEA133302D0524263EB430394EA050F91
:1007600000F0A780A4F10104D5F1200E0DDB02FA00
:100770000EFC22FA05F2801841F1000103FA0EF294
:10078000801843FA05F359410EE0A5F120050EF15A
:10079000200E012A03FA0EFC28BF4CF0020C43FA8B
:1007A00005F3C01851EBE37101F0004507D54FF098
:1007B000000EDCF1000C7EEB00006EEB0101B1F5E8
:1007C000801F1BD3B1F5001F0CD349085FEA30002E
:1007D0004FEA3C0C04F101044FEA445212F5800F39
:1007E00080F09A80BCF1004F08BF5FEA500C50F1D6
:1007F000000041EB045141EA050130BD5FEA4C0CB9
:10080000404141EB0101013C28BFB1F5801FE9D215
:1008100091F0000F04BF01460020B1FA81F308BF38
:100820002033A3F10B03B3F120020CDA0C3208DD04
:1008300002F1140CC2F10C0201FA0CF021FA02F1DF
:100840000CE002F11402D8BFC2F1200C01FA02F14F
:1008500020FA0CFCDCBF41EA0C019040E41AA2BF74
:1008600001EB0451294330BD6FEA04041F3C1CDA3C
:100870000C340EDC04F11404C4F1200220FA04F05C
:1008800001FA02F340EA030021FA04F345EA030106
:1008900030BDC4F10C04C4F1200220FA02F001FAC8
:1008A00004F340EA0300294630BD21FA04F029464A
:1008B00030BD94F0000F83F4801306BF81F48011E3
:1008C0000134013D4EE77FEA645C18BF7FEA655C56
:1008D00029D094EA050F08BF90EA020F05D054EA28
:1008E000000C04BF1946104630BD91EA030F1EBF2D
:1008F0000021002030BD5FEA545C05D14000494131
:1009000028BF41F0004130BD14F580043CBF01F523
:10091000801130BD01F0004545F0FE4141F4700109
:100920004FF0000030BD7FEA645C1ABF19461046E4
:100930007FEA655C1CBF0B46024650EA013406BFE5
:1009400052EA033591EA030F41F4002130BD00BFA4
:1009500090F0000F04BF0021704730B54FF4806461
:1009600004F132044FF000054FF0000150E700BFE2
:1009700090F0000F04BF0021704730B54FF4806441
:1009800004F1320410F0004548BF40424FF000012E
:100990003EE700BF42004FEAE2014FEA31014FEA71
:1009A00002701FBF12F07F4393F07F4F81F06051C0
:1009B000704732F07F4208BF704793F07F4F04BF0B
:1009C00041F40021704730B54FF4607401F00045E8
:1009D00021F000411CE700BF50EA010208BF704748
:1009E00030B54FF000050AE050EA010208BF704739
:1009F00030B511F0004502D5404261EB41014FF4A2
:100A0000806404F132045FEA915C3FF4D8AE4FF0A9
:100A100003025FEADC0C18BF03325FEADC0C18BF8C
:100A2000033202EBDC02C2F1200300FA03FC20FADD
:100A300002F001FA03FE40EA0E0021FA02F114442A
:100A4000BDE600BF4FEA410212F5001215D211D5E2
:100A50006FF47873B3EB625212D94FEAC12343F0BB
:100A6000004343EA505311F0004F23FA02F018BF3D
:100A7000404270474FF00000704750EA013005D106
:100A800011F0004008BF6FF0004070474FF00000C9
:100A9000704700BF4FEA4102B2F1E04324BFB3F513
:100AA000001CDCF1FE5C0DD901F0004C4FEAC002E5
:100AB0004CEA5070B2F1004F40EB830008BF20F0C9
:100AC0000100704711F0804F21D113F13872BCBF83
:100AD00001F00040704741F480114FEA5252C2F1D8
:100AE0001802C2F1200C10FA0CF320FA02F018BF21
:100AF00040F001004FEAC1234FEAD32303FA0CFC74
:100B000040EA0C0023FA02F34FEA4303CCE77FEA02
:100B1000625307D150EA01331EBF4FF0FE4040F44C
:100B20004000704701F0004040F0FE4040F40000FB
:100B3000704700BF53B94AB9002908BF00281CBF3D
:100B40004FF0FF314FF0FF3000F00CB8ADF1080C62
:100B50006DE904CE03F050FCDDF804E0DDE902238A
:100B600004B07047704700BF4A0011D212F500125E
:100B700011D20DD56FF47873B3EB62520ED44FEAF5
:100B8000C12343F0004343EA505323FA02F0704775
:100B90004FF00000704750EA013002D14FF0FF30B3
:100BA00070474FF000007047000000000000000098
:100BB000024AD36843F0C003D3607047004400404A
:100BC00072B60349034BC1F8840003221A70FEE792
:100BD00010090020F00B00200000000000000000C1
:100BE000FEE700BF00000000000000000000000061
:100BF000014B5B6883607047001000E0000000005C
:100C00000E4A0F4B81685B6810B4946802691B1B25
:100C10005B1AD218416902614268C46841F100015F
:100C20009342026888BF436001349342C0E90234B2
:100C300041615DF8044B38BF03607047F00B002042
:100C4000001000E0000000000000000000000000B4
:100C5000254A1369197830B4156BD46829B1012C71
:100C600094BF45F4807545F48475D16A5888096845
:100C700000FB04F400F1FF3C9068C8604C600D601C
:100C80000868926A5C6940F0010000250860D86835
:100C9000196A1560D4609C6914619C8B546241EAA6
:100CA0000C51DC8B9462D1621969D3E9094340F09D
:100CB0008060146340F4807053634B0050600BD528
:100CC00021F0804340F2033023F002030343014349
:100CD000936030BC9160704741F4407141F0010174
:100CE00030BC9160704700BF000800200000000089
:100CF0000A68136823F01F031360136813F00103DD
:100D0000FBD191F809C049683D2202FA0CF20A6051
:100D100043608368012223F08043836082607047D0
:100D200020B1012906D10AB91046704708B5034819
:100D3000FFF746FF6FF01300704700BF1C48000824
:100D400010B5302383F31188224AD2F88830002B63
:100D50003CDDD2F88C30002B38D10123C2F88C3026
:100D600091F824300C2B10D8DFE803F02A0F0F265F
:100D70000B070F0B0F0F0F0F0B00886A83680133EF
:100D80008360D1E90030036058604FF0FF340020E9
:100D90008C628B698C6881F824001B689868A0427B
:100DA000FBD25C680020C1E9003421605960C2F8C0
:100DB0008C0080F3118810BD8B6A00201860E4E776
:100DC0000023C2F88C3083F3118810BD0248FFF76E
:100DD000F7FE00BF10090020C04600080000000018
:100DE00038B5302383F31188164BD3E9224554EAF2
:100DF000050C21D10124C3F88C4001B301F1FF3C63
:100E00001CEA010C1BD1104C65684942281A0840A5
:100E10002168821A8A4208D3954206D36260002272
:100E2000C3F88C2082F3118838BD00226046C3F8D5
:100E30008C2082F3118838BD0448FFF7C1FE0448B6
:100E4000FFF7BEFE10090020E80B0020C84600088E
:100E5000DC47000800000000000000000000000067
:100E6000104BD3F88820002A10B515DBD3F88C304E
:100E7000002B11DD99B14B1E0B4010D10A4A54686A
:100E80004942201A08401168884203D3844201D3A2
:100E9000506010BD184610BD0448FFF791FE04488D
:100EA000FFF78EFE10090020E80B0020D046000856
:100EB000DC47000800000000000000000000000007
:100EC000F8B5264BD3F88820002A40DBD3F88C30C5
:100ED000002B3CDD224C54F8043FA34219D00025DE
:100EE000DA680243DA6010B11A6910420ED05A680B
:100EF000002A2FD09968966B92F824C03143BCF138
:100F00000A0F91631CD0BCF10B0F03D01B68A342E6
:100F1000E6D1F8BD966A36EA0101F7D19169976882
:100F2000956282F8245009688E68BE42FBD21B6825
:100F30004E681160A342566032604A60D0D1E8E743
:100F4000966A3142EAD11B68A342C9D1E1E705485C
:100F5000FFF736FE0448FFF733FE00BF10090020FC
:100F60007C080020D04600080C4800080000000063
:100F7000164B30B403F11004D96144601C698260DF
:100F8000022A046038BF02226060186110488C1881
:100F90004463002404610224C460456AA5EB010C8B
:100FA000624503D930BC70472946154601342144B7
:100FB0004163426A511BA142F6D2022CF2D95A6B0C
:100FC00042F0010230BC5A63704700BF1009002094
:100FD000000C0040000000000000000000000000C5
:100FE00008B50F4BD3F88820002A13DBD3F88C30D8
:100FF000002B0FDD88B100228369816880F82420EE
:101000001B689A688A42FBD25A68C0E900321060B5
:10101000586008BD0348FFF7D3FD0348FFF7D0FD34
:1010200010090020D0460008C44700080000000056
:1010300011F00C0F70B504460FD1056965B18A0631
:1010400040D52B78002B4AD06B682BB1042202705C
:1010500098472378042B6ED070BDD0E90A01FFF7C2
:1010600047FE23699B68002B34D0052222700121A2
:10107000204698472378052B2CD0302383F3118802
:10108000314DD5F88830002B52DDD5F88C30002B4F
:101090004ED160690122C5F88C2068B14FF0FF3253
:1010A00063618262FFF79CFFD5F88830002B3CDD3E
:1010B000D5F88C30002B38DD0023C5F88C3083F355
:1010C000118870BDCB06C7D56B68002BC4D0BDE8B6
:1010D000704018470222002322702361CDE7D0E937
:1010E0000A01FFF705FE6B6843B304222270204615
:1010F00098472378042B21D0302383F31188124D95
:10110000D5F88830002B13DDD5F88C3083B96069B1
:101110000122C5F88C200028CED063618362FFF7DE
:101120005FFFD5F88830002BC2DC0848FFF748FD88
:101130000748FFF745FD0323237070BD02220023FB
:1011400022702361D8E700BF10090020D8460008AC
:10115000C046000800000000000000000000000081
:1011600008B5124BD3F88820EAB9D3F88C20002AAE
:1011700019DDD9681A6881F82400106818604FF0EA
:10118000010C436082F824C0DA60EFF30983086A37
:10119000643B984204D8BDE808401046FFF7B2B857
:1011A0000348FFF70DFD0348FFF70AFD1009002073
:1011B000E8460008E04600080000000000000000CB
:1011C0002DE9F041604DD5F8883086B0002B7BD1F9
:1011D000D5F88C20002A77DD4A1CEF686BD00029F7
:1011E0006FD0A846064658F8100FDFF870E1059357
:1011F0004045564BDEF824C00497039300F09680D8
:10120000EB698468ACEB0303CB1828BF0B469C4208
:1012100024D902290A4638BF02220CEB0201CEF87B
:101220003410DEF82410A1EB0C0C624598BF0222AA
:1012300014D8013201EB020CCEF834C0DEF824C021
:10124000ACEB010191427BD2022A07D96A6B42F0D2
:1012500001026A6302E000681B1B84689C42FAD3A7
:10126000029382680090D21A436801936C461C6016
:101270004FF0FF33C0E90142AB613046FFF770FF2A
:10128000D5F88830002B22DBD5F88C30002B1EDD02
:10129000009B63B12A69A2421CD0DDE901109A6863
:1012A0000B600244C3E901124FF0FF33AB61B86A2F
:1012B00006B0BDE8F081FFF753FFB86A06B0BDE89D
:1012C000F0812348FFF77CFC2248FFF779FC224895
:1012D000FFF776FC002243452B610092C3F804809F
:1012E0002BD09A6802991D480A449A60416AEB69BA
:1012F000CC1AA242DBD95B1A1344022B38BF02235B
:10130000CA184263426A511A994228BF0223CED3B7
:101310000133D1184163416A8A1A9A4212D2022BD0
:10132000C5D96B6B43F001036B63C0E76C460A469B
:1013300020466146FFF71CFE9FE7084BDA60B6E7E0
:10134000614676E70A46E3E710090020410D0008F0
:1013500000480008E0460008D0460008000C0040A5
:101360002DE9F04FD0F81CA085B0002A00F089804C
:1013700090460F469946302282F31188424ED6E9B4
:1013800022310B4377D10123C346CDF80C800446AC
:101390000192C6F88C30B846A268A1695A45226904
:1013A00034BFA5685D46521AAA425DD846D240466F
:1013B000AF1A0292FEF7C6FF029AE16808EB02003C
:1013C0003A46FEF7BFFFE2683A44A261A268521BA8
:1013D000A260002D38D0BAF1000F01D02046D047CE
:1013E000D6F88820002A49D1D6F88C10002945DD8E
:1013F000C6F88C2082F31188019BABEB050BA84447
:1014000083F31188D6E922210A4334D10123C6F897
:101410008C30BBF1000FBFD1D6F88820DDF80C80EE
:1014200062BBD6F88C10002928DDC6F88C2082F328
:101430001188A8EB0B0005B0BDE8F08F2A464046A6
:10144000FEF780FFE268C0E7F268B9F1000FE3D071
:1014500061685160146004200A6062604946FFF7C9
:10146000AFFE002898D0D7E72A464046FEF76AFF2D
:10147000A2692A44A9E70548FFF7A2FB0448FFF741
:101480009FFB0448FFF79CFB10090020C84600089A
:10149000F8460008F04700080000000000000000C7
:1014A0004FF0FF330C30FFF75BBF00BF00000000C0
:1014B0000C30FFF755BF00BF000000000000000027
:1014C00070B5302383F31188264ED6E922321343B8
:1014D00044D1012304460D46C6F88C300AE0626808
:1014E0002946C3E90042042013606360FFF768FEE9
:1014F000002806DBA36883B9F368002DEFD14FF015
:10150000FF30D6F8883033BBD6F88C20002A22DD95
:10151000C6F88C3083F3118870BDA368A169013BC4
:10152000A36023694A1C9A4228BFE368A2610D7830
:1015300028BFA361E3690BB120469847D6F88830ED
:101540004BB9D6F88C20002A05DDC6F88C3083F321
:101550001188284670BD0448FFF732FB0348FFF7A7
:101560002FFB00BF10090020F8460008C8460008FD
:101570004FF0FF310C30FFF7A3BF00BF00000000A9
:101580000C30FFF79DBF00BF00000000000000000E
:10159000F8B51546302383F31188264FD7E9223258
:1015A000134343D1012304460E46C7F88C300AE0AA
:1015B00060682946C3E90040036004206360FFF7C8
:1015C000FFFD002806DBA36883B9FB68002DEFD17F
:1015D0004FF0FF30D7F888302BBBD7F88C20002A8B
:1015E00021DDC7F88C3083F31188F8BDA3686269E8
:1015F000013BA360531C63611670D4E904329A4224
:1016000024BFE3686361E3690BB120469847D7F8CC
:10161000880040B9D7F88C30002B04DDC7F88C0067
:1016200080F31188F8BD0448FFF7CAFA0348FFF7B2
:10163000C7FA00BF10090020F8460008C846000895
:101640004FF0FF323030FFF7A3BF00BF00000000B3
:101650003030FFF79DBF00BF000000000000000019
:101660002DE9F04F85B0D0F81CB00293002A00F0AD
:10167000818091468846302282F311883F4ED6E918
:1016800022310B4370D1012304460192C6F88C30FD
:10169000CA46A368D4E90470534534BFA5685546CB
:1016A0003F1AAF4259D843D23A464146FEF74AFE66
:1016B000EA1BE068039208EB0701FEF743FEE368CC
:1016C000039A1A44A36862615B1BA360B5B3BBF1C4
:1016D000000F01D02046D847D6F88830002B46D1DD
:1016E000D6F88C20002A42DDC6F88C3083F31188AE
:1016F000019BAAEB050AA84483F31188D6E922329C
:10170000134331D10123C6F88C30BAF1000FC0D198
:10171000D6F888205ABBD6F88C10002927DDC6F8E9
:101720008C2082F31188A9EB0A0005B0BDE8F08F88
:101730002A464146FEF706FEE268C3E70299F368CF
:101740000029E5D062681C605A6004201360636061
:10175000FFF736FD00289CD0DAE72A464146FEF71F
:10176000F1FD62692A44ADE70548FFF729FA05480B
:10177000FFF726FA0448FFF723FA00BF10090020FC
:10178000C8460008F8460008B447000800000000FA
:101790004FF0FF333030FFF763BF00BF00000000A1
:1017A0003030FFF75DBF00BF000000000000000008
:1017B0002DE98048804C814AE368DFF818A2DFF801
:1017C00018B2DA6183B04FF4804811237C4D019345
:1017D000474640F2E736AAF818702846ABF81A7068
:1017E00002F0EAFD82004FEA810C13184CEA907C6B
:1017F00041EB0C02D20042EA5372DB001B1A62EB8F
:101800000102120142EA13721B01181841EB020196
:101810000301090141EA1071981941F100014FF4E7
:101820007A720023FFF786F94FF03009014689F3F9
:101830001188D4E92232134340F0AE800123C4F86A
:101840008C30002800F0AB8000900820FFF7B8FC37
:10185000D4F8882000990123002A40F09A80D4F817
:101860008C00002840F39580C4F88C2082F3118806
:10187000AAF81A80ABF8188089F31188D4E92220DD
:10188000024340F089800820C4F88C30FFF798FCB0
:10189000D4F88830002B7CD1D4F88C20002A78DD55
:1018A000C4F88C3083F311882846FFF773F83EA301
:1018B000D3E90023FEF7E0FDFFF7ECF8019B013BC5
:1018C0000546019387D14FF4804810233D4E009385
:1018D000474642F21075AAF818703046ABF81A70F5
:1018E00002F06AFDA0FB053205FB012140F2E73260
:1018F000981841F100014FF47A720023FFF71AF9AA
:101900004FF03009014689F31188D4E9223213439C
:1019100042D10123C4F88C30002840D00190082027
:10192000FFF74EFCD4F888209ABBD4F88C0000282E
:101930002FDDC4F88C2082F31188AAF81A80ABF846
:10194000188089F31188D4E92220024324D101238D
:101950000199C4F88C300820FFF732FCD4F88830A5
:10196000BBB9D4F88C20002A13DDC4F88C3083F383
:1019700011883046FFF70EF80DA3D3E90023FEF7D8
:101980007BFDFFF787F8009B013B06460093A2D141
:1019900019E70D48FFF714F90C48FFF711F90C4847
:1019A000FFF70EF9AFF300809A9999999999F13F51
:1019B000CDCCCCCCCCCCEC3F1009002000470008AB
:1019C0000000F04100001643F8460008C846000831
:1019D000D047000800040240000802400000000058
:1019E00010B4F1EE103AEFF30983683B4FF08071C9
:1019F000094AD961D26B1A6683F309880749084AF4
:101A00000868C968846888680649844288BF0A46AD
:101A10009A615DF8044B704700EF00E01009002068
:101A20003E0300083303000800000000000000002F
:101A30000EB42DE9F04F2DED068B8CB01BAB53F897
:101A400004BB05935D46019315F8011B002900F0C6
:101A5000C98282464FF000090DE0DAF800305046A6
:101A6000DB68984709F10109AB465D4615F8011B93
:101A7000002900F0DB802529EFD19BF801302D2BC8
:101A800006BF0BF102050123002300932B782B2BBB
:101A900003BF6B784FF0010801354FF00008302B81
:101AA00003BF01351E462B7820262A2B48D16B78A0
:101AB000019F2E2B57F8044B05F1020B56D0002541
:101AC00003F0DF024C2A61D0A3F14401342900F273
:101AD000B580DFE811F0E000B300B300B300B3005D
:101AE000E000B300B300B300B300B3004D01140134
:101AF000B300B300B300B3005702B300B300140146
:101B0000B300B300B300B300B300B300B300B3003D
:101B1000B300B3000F02E000B3007001B300B300E4
:101B2000E000B300B300B300B300B3004D011401F3
:101B3000B300B3005001B3005702B300B300140167
:101B400005F1010B002B71D0002405E01BF8013BCF
:101B500002EB4104002B69D0A3F13002D2B2092A72
:101B600004EB8401F2D92E2B019FA8D19BF8003001
:101B7000002B5BD02A2B48D19BF8013057F8045B2F
:101B800003F0DF024C2A0BF1020B9DD11BF8013B45
:101B9000002B4BD0A3F14402342A4FD8DFE812F0D7
:101BA0007B004E004E004E004E007B004E004E006B
:101BB0004E004E004E00E800AF004E004E004E00BA
:101BC0004E00F2014E004E00AF004E004E004E009F
:101BD0004E004E004E004E004E004E004E00AA0138
:101BE0007B004E000B014E004E007B004E004E006D
:101BF0004E004E004E00E800AF004E004E00EB00DD
:101C00004E00F2014E004E00AF000BF1010B00251B
:101C1000A3F13002D2B2092A05EB85013FF650AF9D
:101C20001BF8013B02EB4105002BF1D148460CB0FB
:101C3000BDEC068BBDE8F04F03B070478DF818304F
:101C4000013C0197009B24EAE47523B9002CC5F1FF
:101C5000000500F382814FF0000806AF08F101048F
:101C60003C44DAF8003017F8011BDB68504698470F
:101C7000A742F6D109F10109C144002D3FF4F5AEA8
:101C80002C46DAF800303146DB6850469847013C74
:101C9000F7D1A944E9E63B4653F8041B0193002918
:101CA000C0F25381B8F1000F00F085812B238DF82D
:101CB000183006AF0DF1190303F10B0C6046C44A4E
:101CC000A2FB0152D20802EB82059646A1EB450227
:101CD00030320D46D2B2092D00F8012D7146EEDCEE
:101CE000ACEB0001194401E010F8012F03F8012BBF
:101CF0008B42F9D1DB1BE41A03F1FF382AE04FF0E5
:101D0000100C3B460DF1230853F8040B0193414698
:101D100000E011460546B0FBFCF00CFB105707F144
:101D20003003392BC8BF07F13703DBB2654501F13A
:101D3000FF3201F8013CECD206AFA8EB02023846B4
:101D400001E011F8013B00F8013B4145F9D1A41A2B
:101D500002F1FF38009B24EAE47523B9002CC5F199
:101D6000000500F3D080B8F1000FBFF677AF84E72D
:101D70004FF0080CC5E73B4653F8047B0193002F56
:101D800000F0F9803A78002D00F00981002A00F077
:101D90000881013D00F105813A4601E0E94204D4A1
:101DA00012F8013FB91A002BF8D1D21BA41A02F184
:101DB000FF382026CEE7073727F00703F3E80201B4
:101DC0000193FEF767FE08EE100AB5EEC08AF1EE49
:101DD00010FA00F1C780B8F1000F00F0EF802B235C
:101DE0008DF818300DF1190806AF18EE100AFEF73D
:101DF000D1FD013D082D41EC190B00F2C680754B59
:101E000053F82530039318461D46FEF7A1FD704A8E
:101E10002B46A2FB033541EC1A0BED08FDEEC87A08
:101E200008F10B0C17EE901ACDED027A6246684B62
:101E3000A3FB0103DB0803EB830E1846A1EB4E0363
:101E400030338E46DBB2BEF1090F02F8013D014688
:101E5000EDD8ACEB020C08EB0C00414601E012F8A7
:101E6000013F01F8013B8142F9D10A462E2302F8D5
:101E70000C3B0CF1FF3C02980292E044FEF778FD27
:101E800002460B4651EC190BFEF724FC53EC1A2BBF
:101E9000FEF7F2FAFEF7D6FD039B0299092B98BFD5
:101EA000054608F102034A4AA2FB00C2D208944642
:101EB00002EB820EA0EB4E026046AC46444D30323F
:101EC000D2B2A5FB0CE5BCF1090F01F8012D4FEAD8
:101ED000D505E8D80298401A0230804401E011F894
:101EE000012F03F8012B4345F9D1DB1BE41A03F161
:101EF000FF382FE73A46013C52F8043B01928DF837
:101F0000183020269EE62C4639782D2910D02B2912
:101F10000ED0DAF800303146DB685046984701357C
:101F2000F7D1B8F1000FA9EB0409BFF697AE9CE515
:101F3000302EEED1DAF800205046D268013709F190
:101F4000010908F1FF389047E3E72D238DF8183099
:101F500049420DF1190306AFAEE6DDF800802C46CC
:101F600006AFD1E72D23B1EE488A8DF818300DF178
:101F7000190806AF39E7184F002D7FF40AAF47F66E
:101F8000FE7509E74FF00A0CBBE69FED0F7B134B84
:101F9000134D0393B0EE47AAF0EE67AA3EE7002A7E
:101FA000EDD1009B24EAE4751BB9002CC5F10005B6
:101FB0001ADC202661E606AF3B467DE606AFB84652
:101FC00013E700BFAFF300800000000065CDCD41F6
:101FD000CDCCCCCC504900080847000800CA9A3B39
:101FE00000E1F505894621E62C464FF0FF38202612
:101FF0008AE700BF000000000000000000000000B1
:102000002DE9F04F2DED048B302383B083F311883D
:10201000A84CD4E92232134340F04581A64D2A78DA
:102020006B6001218A42C4F88C1000F0E680022324
:102030002B70D4F88C30002B40F332810023C4F88D
:102040008C3083F311889D4A536843F400034FF0AA
:10205000300B53608BF31188D4E92232134340F0E4
:1020600022810326DFF8A092DFF8A082C5F808904D
:1020700001274FF00A0AC4F88C702E70C5F8108042
:10208000C5F80CA0FEF7E4FDE3688D4A9A626B6127
:102090003046FFF765F8D4F88820002A40F0008128
:1020A000D4F88C30002B40F3FB80C4F88C2082F3F2
:1020B00011888BF31188D4E92223134340F0F38075
:1020C00051460820C4F88C70FFF77AF8D4F88820BD
:1020D000002A40F0E580D4F88C30002B40F3E080FB
:1020E000C4F88C2082F311888BF31188D4E9222361
:1020F000134340F0D880C5E9029AC4F88C70C5F843
:1021000010802E70FEF7A4FDE3686D4A9A626B6141
:102110003046FFF725F8D4F88830002B40F0C08017
:10212000D4F88C30002B40F3BB800022C4F88C2004
:1021300082F31188614C616821F400014B4609F17A
:102140001400616033F8021B98420A44FAD107EE8A
:10215000902AF8EE677AB2EE047A87EE878A18EE54
:10216000100AFEF717FC02460B4656485649FFF781
:102170005FFC564B9FED567A9A8DDB8D08EE902AC8
:1021800007EE903AF8EE688AF8EE677A77EEE87A2A
:1021900087EE879A19EE100AFEF7FCFBDFED4D7A09
:1021A00069EE277A044617EE900A0D46FEF7F2FB19
:1021B000494B0022FEF760F906460F4622462B46A1
:1021C000CDE9006745493F48FFF732FC38EE688AA1
:1021D000F3EE0E7A88EE097A77EE277A17EE900AF8
:1021E000FEF7D8FB02460B4636483D4903B0BDEC2E
:1021F000048BBDE8F04FFFF71BBC3A4A1168C804D6
:1022000054D4394B394841F480511160196B5066F0
:1022100041F480011963196D3548956641F48001D8
:1022200019651B6D036F23F01F030367026F12F024
:102230000102FBD1DFF8D8C02E492B4B2E4F4FF0B7
:102240003D0ECCF80CE44FF0210C02674FF08056A5
:10225000C0F884C04FF0600C81F83CC3C1F88461C1
:102260004E608767596C254E41F480715964596EF0
:1022700041F48071596611495B6E4B6803F4400369
:1022800043F480334B60AB6AD4F88810EE620120CF
:102290005A609A60986002232B7000293FF4C9AEFF
:1022A0001748FEF78DFC1748FEF78AFC1A68EB62A8
:1022B000FFDE00BF100900200008002000230140BD
:1022C000140800207C08002010470008007AFF1F37
:1022D0000000A04200404E450000303F1C4700086F
:1022E00040470008180C0020003802403110000858
:1022F0000064024000E100E04C200140B4480008C6
:10230000F8460008C8460008FC080020E448000819
:10231000006002400000000000000000000000001B
:10232000704700BF00000000000000000000000037
:10233000704700BF00000000000000000000000027
:10234000FEE700BF000000000000000000000000E9
:10235000F8B5154D154F16491648174A05F1700482
:1023600081420DD9043A034652F8046F43F8046BD6
:102370009942F9D84B1E1B1A23F003030433184467
:10238000874207D97A1E121A22F003020432002172
:1023900001F0C0FFA54205D0D5E90420D5E9061714
:1023A0001035DDE7F8BD00BF744900087018002043
:1023B0007018002070180020244A00080000000057
:1023C00008B5074BD3F8882032B9D3F88C10002910
:1023D00002DDC3F88C2008BD0248FEF7F1FB00BF08
:1023E00010090020F846000800000000000000006E
:1023F00008B5064BD3E922210A4303D10122C3F8D1
:102400008C2008BD0248FEF7DBFB00BF100900204E
:10241000C8460008000000000000000000000000A6
:102420005D4D5E49EA6880B53023D16183F3118840
:102430005B4CFFF7DDFF237A012B00F09D80A36F3B
:10244000584903F56142A1FB0212636F120C40214F
:102450009A600026196142F22C1201215961DA605A
:102460001E6019685B68FF22022384F87C202372B7
:10247000FFF7A6FF86F311884FF0FF334A494B4818
:102480000822FFF7EDF8324649494548FFF7D0FAF0
:10249000324648494248484EFFF7CAFA3CA3D3E9BE
:1024A000002346493E48FFF7C3FAFFF7A9FDDFF8CE
:1024B000FC80302787F31188D5E92232134355D1A8
:1024C0000123C5F88C300CE0EB6822694FF47A7177
:1024D000C3E90062042013602361FEF771FE002847
:1024E00030DB6369002BEFD06369626A013B636193
:1024F000531C63621778E269934224BFA369636245
:10250000A36A0BB130469847D5F888308BBBD5F815
:102510008C20002A2DDDC5F88C3083F311884FF014
:10252000FF3239464046303FFFF732F8022FC0D81D
:10253000302383F31188D5E92232134316D183F374
:102540001188B4E7D5F888309BB9D5F88C20002ADB
:102550000FDDC5F88C3083F31188431CAAD0C1B2BB
:102560004FF0FF324046FFF713F8A2E71448FEF79A
:1025700027FB1448FEF724FB134B1A6C42F400327D
:102580001A641A6E42F400321A661B6E57E700BFD7
:10259000A4703D0AD7A3F83F100900204C4700085B
:1025A0007C080020C5B3A2915C470008AC0800205D
:1025B000644700087447000888080020884700081E
:1025C000C8460008F8460008003802400000000035
:1025D000F8B506460D461446302383F31188FFF7FD
:1025E00007FFA5F1480C06EB0C03A3F16402DA60C7
:1025F0000021012283F8262043E90941C3E90E1195
:102600002D4ADA6102212D4A998480219960D46A89
:102610002B4FD2F88850196443F8047C03F1100062
:1026200003F1300102F128071E629A615C611F61AB
:102630002060C3E90C1103F12C01D062D96245BBC3
:10264000D2F88C10002924DDD16898688C689D62CE
:10265000A04224D9886981F8245000688568AC427A
:10266000FBD34468C1E9000421600124416083F880
:102670002440D360EFF30982086A643A90420BD891
:102680001846FDF73FFEFFF79BFE002383F31188FA
:10269000F8BD0C48FEF794FA0B48FEF791FA83F860
:1026A0002450126891688842FBD9516846F80C2082
:1026B00059600B605360E6E790470008100900205E
:1026C0001D030008E0460008E8460008000000007E
:1026D0002DE9F04F302183B081F31188AF4CD4F84D
:1026E0008830002BC0F24B81D4F88C20002A40F0B7
:1026F00046810133C4F8883082F31188A84E776F81
:10270000D7F80C90D7F800A01AF4807F40F0BE8074
:10271000302383F31188D4F88830002B40F32C81C8
:10272000D4F88C80B8F1000F40F0268101231AF014
:102730002F0FC4F88C301FFA8AF517D0DFF880A26B
:10274000280741D1A9067B6896F87CB052D43B6833
:1027500013F02F0F9DB2F3D1D4F88830002B40F343
:102760000881D4F88C30002B40F303810023C4F897
:102770008C3083F3118819F0800F40F0AB8019F092
:10278000400F02D06B0600F11D81302282F31188C8
:10279000D4F88830002B40F3FE80D4F88C10002948
:1027A00040F0F980013BC4F8883081F3118882F34E
:1027B00011887C4B5B6813F4006340F01B8183F34A
:1027C000118803B0BDE8F08FC5F3C0000002E9072F
:1027D00048BF40F02000AA0748BF40F040006B0708
:1027E00048BF40F08000FEF76BFBA9067B6896F8B7
:1027F0007CB0ACD5D4F88820002A44DBD4F88C20F7
:10280000002A40DD7269002A30D0D6E908129142D0
:1028100000F0B8800BEA030B7369013373614B1C42
:10282000336281F800B0D6E907329A424FD2F3689A
:1028300053458CD01A68F260C2F804A0D4F88820FE
:10284000C3F82880002A1EDBD4F88C20002A1ADD69
:102850009969986883F8248009688A688242FBD263
:102860004A6819605A6013604B6070E70420019356
:10287000FEF726FBD4F88820002A04DBD4F88C204D
:10288000019B002AC1DC4848FEF79AF981F31188C0
:10289000D4F88830002B6FDDD4F88C50002D6BD12C
:1028A00001234FF48060C4F88C30FEF709FBD4F8A4
:1028B00088306FF48072002B3A605ADDD4F88C3087
:1028C000002B56DDC4F88C5085F3118820E7B369DE
:1028D0003362ACE72A067FF552AF302383F31188C9
:1028E000D4F88830002B47DDD4F88C20002A43D15F
:1028F000D6E9111201209142C4F88C007FD0B16B4F
:102900000131B163511CB16492F80080326C914284
:1029100001D3F26BB264306B244A904208D0036852
:1029200033635A6000238362FEF75AFBD4F8883081
:10293000C7F80480002B1CDDD4F88C30002B18DD88
:102940000023C4F88C3083F3118818E7B36B002B95
:102950004AD01020FEF7B4FAD4F888204FF6BF739F
:1029600009EA0303002AFB6003DDD4F88C30002B56
:102970003ADC0F48FEF724F90E48FEF721F90E481D
:10298000FEF71EF97269002A3FF444AF4FF400606D
:10299000FEF796FADBE60948FEF712F91009002067
:1029A0007C08002000ED00E0D0460008AC080020C4
:1029B000D8460008C046000898470008A04700080D
:1029C00088080020302383F31188D4F88830002B46
:1029D000D2DDD4F88C30002BCED10123C4F88C305A
:1029E000D6E911239A42B1D00023C4F88C3083F386
:1029F0001188CAE603B0BDE8F04FFEF7F1BFB16B36
:102A000000293FF47CAF0820FEF75AFA4FF67F7397
:102A100009EA0303FB60D4F888308BE7000000006C
:102A200038B5302383F31188264CD4F88830002B36
:102A30003DDBD4F88C00002839D10133C4F888304C
:102A400080F31188204DEA681369D1680B40D9B230
:102A5000C943DB07116118D4302282F31188D4F8FE
:102A60008830002B26DDD4F88C1019BB013BC4F84C
:102A7000883081F3118882F31188144B5B6813F45A
:102A800000631AD183F3118838BD2B78042B07D14A
:102A900002232B7010601061D36823F0FF03D36012
:102AA0006B685B68002BD7D007489847D4E7084885
:102AB000FEF786F80748FEF783F8BDE83840FEF7D2
:102AC0008FBF00BF100900203408002000ED00E097
:102AD00098470008A0470008000000000000000020
:102AE0002DE9F84F302181F31188704CD4F88830EB
:102AF000002BC0F28E80D4F88C20002A40F0898010
:102B00000133C4F8883082F31188694D2B69EA6873
:102B10001340DAB2D2439B072A611AD4302282F3DF
:102B20001188D4F88830002B70DDD4F88C1000297F
:102B30006CD1013BC4F8883081F3118882F311888D
:102B40005C4B5B6813F4006369D183F31188BDE8C3
:102B5000F88F81F31188D4F88830002B5CDDD4F82D
:102B60008CA0BAF1000F57D10123C4F88C3004F1C6
:102B7000100BD0464FF030092669696AE769B268E0
:102B8000C81B90425ED31744D6E90032E761136058
:102B90005A60C6F800A023695B4550D0D4F88C3049
:102BA000002B49DDC4F88CA088F31188D6E90331E5
:102BB0003046984789F31188D4F88830002B2BDDF4
:102BC000D4F88C2042BB73690121C4F88C10002B0F
:102BD000D2D0696AA1EB070C63454CD320695845F4
:102BE00021D08268934204D900689B1A82689A4275
:102BF000FAD3B36082683060D21A436873601E6093
:102C00004FF0FF33C0E90162A361B3E72A48FDF743
:102C1000D7FF2A48FDF7D4FF2948FDF7D1FFBDE8CB
:102C2000F84FFEF7DDBE5A1A3A443046FEF7A0F9D7
:102C3000D4F88830002B14DC2248FDF7C1FFC5F81A
:102C40000CA0ABE75E450CD0521AD319022BE16100
:102C5000B36038BF0223CA186A636A6A511A99427C
:102C600012D2D4F88C30002BE6DD0023C4F88C306F
:102C700083F3118852E7636B206943F002035845E0
:102C80006363D2D06346ACE7094902230133D0180D
:102C90004863486A821A9A4206D2022BE1D9636BD2
:102CA00043F001036363DCE70246EFE7100900200D
:102CB000000C004000ED00E0A04700089847000825
:102CC000C0460008D84600080000000000000000D0
:102CD000F8B5302383F31188414CD4F88830002BA9
:102CE00071DBD4F88C20002A6DD10133C4F8883010
:102CF00082F311883B4D3C4B2E6919681A60002EF7
:102D000036D08A064DD4CB0732D50427D5E90A013F
:102D1000FDF7EEFFB368002B50D0052231482A7032
:102D2000394698472B78052B48D0302383F31188F8
:102D3000D4F88830002B4FDDD4F88C30002B4BD1E9
:102D400068690122C4F88C2068B14FF0FF328262BA
:102D50006B61FEF745F9D4F88830002B39DDD4F8E3
:102D60008C30002B35DD0023C4F88C3083F31188C0
:102D7000302282F31188D4F88830002B26DDD4F875
:102D80008C1019BB013BC4F8883081F3118882F3A1
:102D90001188164B5B6813F400630BD183F3118821
:102DA000F8BD2B78032BAED111F0010F14BF06270D
:102DB0000227ABE7BDE8F840FEF712BE022200236F
:102DC0002A702B61B1E70A48FDF7FAFE0948FDF7C2
:102DD000F7FE0948FDF7F4FE0848FDF7F1FE00BFD5
:102DE00010090020000800200020014000ED00E054
:102DF00098470008A0470008D8460008C0460008C9
:102E000010B5302383F311881C4CD4F88830002B84
:102E10002ADBD4F88C203ABB0133C4F8883082F323
:102E20001188174B17481968426801F03D019960F5
:102E30000AB180689047302282F31188D4F8883034
:102E4000002B14DDD4F88C1089B9013BC4F888300C
:102E500081F3118882F311880B4B5B6813F40063D4
:102E600008D183F3118810BD0848FDF7A9FE084872
:102E7000FDF7A6FEBDE81040FEF7B2BD1009002028
:102E800000600240180C002000ED00E098470008A8
:102E9000A047000800000000000000000000000043
:102EA00010B5302383F311881D4CD4F88830002BE3
:102EB0002CDBD4F88C204ABB0133C4F8883082F371
:102EC0001188184B184A1968890901F03D018801D9
:102ED0009860D3680BB110699847302282F311884B
:102EE000D4F88830002B14DDD4F88C1089B9013B5C
:102EF000C4F8883081F3118882F311880B4B5B682A
:102F000013F4006308D183F3118810BD0848FDF75E
:102F100057FE0848FDF754FEBDE81040FEF760BDBF
:102F20001009002000600240180C002000ED00E0B5
:102F300098470008A04700080000000000000000BB
:102F400010B5302383F311881D4CD4F88830002B42
:102F50002CDBD4F88C204ABB0133C4F8883082F3D0
:102F60001188184B184A1968090C01F03D01080432
:102F7000986053690BB190699847302282F31188A9
:102F8000D4F88830002B14DDD4F88C1089B9013BBB
:102F9000C4F8883081F3118882F311880B4B5B6889
:102FA00013F4006308D183F3118810BD0848FDF7BE
:102FB00007FE0848FDF704FEBDE81040FEF710BD0F
:102FC0001009002000600240180C002000ED00E015
:102FD00098470008A047000800000000000000001B
:102FE00010B5302383F311881D4CD4F88830002BA2
:102FF0002CDBD4F88C204ABB0133C4F8883082F330
:103000001188184B184A1968890D01F03D0188058F
:103010009860D3690BB1106A9847302282F3118807
:10302000D4F88830002B14DDD4F88C1089B9013B1A
:10303000C4F8883081F3118882F311880B4B5B68E8
:1030400013F4006308D183F3118810BD0848FDF71D
:10305000B7FD0848FDF7B4FDBDE81040FEF7C0BC61
:103060001009002000600240180C002000ED00E074
:1030700098470008A047000800000000000000007A
:1030800010B5302383F311881C4CD4F88830002B02
:103090002ADBD4F88C203ABB0133C4F8883082F3A1
:1030A0001188174B17485968426A01F03D01D960F1
:1030B0000AB1806A9047302282F31188D4F88830B0
:1030C000002B14DDD4F88C1089B9013BC4F888308A
:1030D00081F3118882F311880B4B5B6813F4006352
:1030E00008D183F3118810BD0848FDF769FD084831
:1030F000FDF766FDBDE81040FEF772BC1009002028
:1031000000600240180C002000ED00E09847000825
:10311000A0470008000000000000000000000000C0
:1031200010B5302383F311881D4CD4F88830002B60
:103130002CDBD4F88C204ABB0133C4F8883082F3EE
:103140001188184B184A5968890901F03D01880116
:10315000D860D36A0BB1106B9847302282F3118884
:10316000D4F88830002B14DDD4F88C1089B9013BD9
:10317000C4F8883081F3118882F311880B4B5B68A7
:1031800013F4006308D183F3118810BD0848FDF7DC
:1031900017FD0848FDF714FDBDE81040FEF720BC00
:1031A0001009002000600240180C002000ED00E033
:1031B00098470008A0470008000000000000000039
:1031C00010B5302383F311881D4CD4F88830002BC0
:1031D0002CDBD4F88C204ABB0133C4F8883082F34E
:1031E0001188184B184A5968090C01F03D01080470
:1031F000D860536B0BB1906B9847302282F31188E3
:10320000D4F88830002B14DDD4F88C1089B9013B38
:10321000C4F8883081F3118882F311880B4B5B6806
:1032200013F4006308D183F3118810BD0848FDF73B
:10323000C7FC0848FDF7C4FCBDE81040FEF7D0BB52
:103240001009002000600240180C002000ED00E092
:1032500098470008A0470008000000000000000098
:1032600010B5302383F311881D4CD4F88830002B1F
:103270002CDBD4F88C204ABB0133C4F8883082F3AD
:103280001188184B184A5968890D01F03D018805CD
:10329000D860D36B0BB1106C9847302282F3118841
:1032A000D4F88830002B14DDD4F88C1089B9013B98
:1032B000C4F8883081F3118882F311880B4B5B6866
:1032C00013F4006308D183F3118810BD0848FDF79B
:1032D00077FC0848FDF774FCBDE81040FEF780BBA2
:1032E0001009002000600240180C002000ED00E0F2
:1032F00098470008A04700080000000000000000F8
:1033000010B5302383F311881C4CD4F88830002B7F
:103310002ADBD4F88C203ABB0133C4F8883082F31E
:103320001188174B17481968426C01F03D019960EC
:103330000AB1806C9047302282F31188D4F888302B
:10334000002B14DDD4F88C1089B9013BC4F8883007
:1033500081F3118882F311880B4B5B6813F40063CF
:1033600008D183F3118810BD0848FDF729FC0848EF
:10337000FDF726FCBDE81040FEF732BB1009002027
:1033800000640240180C002000ED00E0984700089F
:10339000A04700080000000000000000000000003E
:1033A00010B5302383F311881D4CD4F88830002BDE
:1033B0002CDBD4F88C204ABB0133C4F8883082F36C
:1033C0001188184B184A1968890901F03D018801D4
:1033D0009860D36C0BB1106D9847302282F311883E
:1033E000D4F88830002B14DDD4F88C1089B9013B57
:1033F000C4F8883081F3118882F311880B4B5B6825
:1034000013F4006308D183F3118810BD0848FDF759
:10341000D7FB0848FDF7D4FBBDE81040FEF7E0BA43
:103420001009002000640240180C002000ED00E0AC
:1034300098470008A04700080000000000000000B6
:1034400010B5302383F311881D4CD4F88830002B3D
:103450002CDBD4F88C204ABB0133C4F8883082F3CB
:103460001188184B184A1968090C01F03D0108042D
:103470009860536D0BB1906D9847302282F311889C
:10348000D4F88830002B14DDD4F88C1089B9013BB6
:10349000C4F8883081F3118882F311880B4B5B6884
:1034A00013F4006308D183F3118810BD0848FDF7B9
:1034B00087FB0848FDF784FBBDE81040FEF790BA93
:1034C0001009002000640240180C002000ED00E00C
:1034D00098470008A0470008000000000000000016
:1034E00010B5302383F311881D4CD4F88830002B9D
:1034F0002CDBD4F88C204ABB0133C4F8883082F32B
:103500001188184B184A1968890D01F03D0188058A
:103510009860D36D0BB1106E9847302282F31188FA
:10352000D4F88830002B14DDD4F88C1089B9013B15
:10353000C4F8883081F3118882F311880B4B5B68E3
:1035400013F4006308D183F3118810BD0848FDF718
:1035500037FB0848FDF734FBBDE81040FEF740BAE2
:103560001009002000640240180C002000ED00E06B
:1035700098470008A0470008000000000000000075
:1035800010B5302383F311881C4CD4F88830002BFD
:103590002ADBD4F88C203ABB0133C4F8883082F39C
:1035A0001188174B17485968426E01F03D01D960E8
:1035B0000AB1806E9047302282F31188D4F88830A7
:1035C000002B14DDD4F88C1089B9013BC4F8883085
:1035D00081F3118882F311880B4B5B6813F400634D
:1035E00008D183F3118810BD0848FDF7E9FA0848AF
:1035F000FDF7E6FABDE81040FEF7F2B91009002029
:1036000000640240180C002000ED00E0984700081C
:10361000A0470008000000000000000000000000BB
:1036200010B5302383F311881D4CD4F88830002B5B
:103630002CDBD4F88C204ABB0133C4F8883082F3E9
:103640001188184B184A5968890901F03D01880111
:10365000D860D36E0BB1106F9847302282F3118877
:10366000D4F88830002B14DDD4F88C1089B9013BD4
:10367000C4F8883081F3118882F311880B4B5B68A2
:1036800013F4006308D183F3118810BD0848FDF7D7
:1036900097FA0848FDF794FABDE81040FEF7A0B984
:1036A0001009002000640240180C002000ED00E02A
:1036B00098470008A0470008000000000000000034
:1036C00010B5302383F311881D4CD4F88830002BBB
:1036D0002CDBD4F88C204ABB0133C4F8883082F349
:1036E0001188184B184A5968090C01F03D0108046B
:1036F000D860536F0BB1906F9847302282F31188D6
:10370000D4F88830002B14DDD4F88C1089B9013B33
:10371000C4F8883081F3118882F311880B4B5B6801
:1037200013F4006308D183F3118810BD0848FDF736
:1037300047FA0848FDF744FABDE81040FEF750B9D3
:103740001009002000640240180C002000ED00E089
:1037500098470008A0470008000000000000000093
:1037600010B5302383F311881E4CD4F88830002B19
:103770002DDBD4F88C2052BB0133C4F8883082F39F
:103780001188194B194A5968890D01F03D018805C6
:10379000D860D36F13B1D2F880009847302282F3FB
:1037A0001188D4F88830002B14DDD4F88C1089B936
:1037B000013BC4F8883081F3118882F311880C4BE7
:1037C0005B6813F4006308D183F3118810BD0948C6
:1037D000FDF7F6F90848FDF7F3F9BDE81040FEF7EC
:1037E000FFB800BF1009002000640240180C002040
:1037F00000ED00E098470008A04700080000000026
:1038000070B5302181F311887D4CD4F88830002BBD
:10381000C0F2E580D4F88C20002A40F0E08001332B
:10382000C4F8883082F31188764A7748556BAB69C3
:103830006E6946EA034303F0FF13834236D8B3F5BB
:10384000403F0FD9A3F54033013B102B0DD8DFE8E3
:1038500003F042590C0C0C0C0C6F0C0C0C0C0C0CE7
:103860000C0C7400B3F1011F35D016F00A0F18BF0D
:10387000AB69302282F31188D4F88830002B40F3F2
:10388000B180D4F88C10002940F0AC80013BC4F822
:10389000883081F3118882F311885C4B5B6813F4E4
:1038A000006340F0A28083F3118870BD58488342C2
:1038B0001DD002308342D8D12B69D36A1B685B6864
:1038C000002B64D0118C2B6841F0010143F4A063FC
:1038D00011842B60CDE7138C1A0A2CD002F006025B
:1038E00003F00103134343F0F0032B61BDE76B6862
:1038F000126B23F4007312686B60136843F00103CA
:103900001360B2E76B68D16A23F400720B686A60D7
:103910001A6842F001021A606A6842F480526A60D2
:103920005B68012BA1D82B6823F480632B609CE794
:10393000138CC3F347032B6197E7106B4FF40043DD
:103940002B60016800232B606B606B610B6823F0B8
:103950001F030B600B68DB07FCD490F809C0D16A29
:1039600042683D2303FA0CF313600A68136823F0DE
:103970001F0313601368DB07FCD44A68497A3D23B0
:103980008B4013606B6823F400736B606DE76B68AA
:1039900023F400736B602B6843F400732B6081F396
:1039A0001188D4F88830002B23DDD4F88C3003BB89
:1039B000D0690121C4F88C1058B1D3618362FDF73E
:1039C0000FFBD4F88830002B16DDD4F88C30002B98
:1039D00012DD0023C4F88C3083F3118845E70D48CD
:1039E000FDF7EEF80C48FDF7EBF8BDE87040FDF789
:1039F000F7BF0A48FDF7E4F80948FDF7E1F800BF12
:103A000010090020440800201100030000ED00E030
:103A10008200070098470008A0470008C046000839
:103A2000D846000800000000000000000000000070
:103A30005A494A6BF8B55569302383F31188584CBD
:103A4000D4F88830002BC0F29880D4F88C20002A5B
:103A500040F093800133A8B2C4F8883082F3118813
:103A6000D1E90C7605F45F433A68DB437361136870
:103A700023F01F0313601368DB07FCD497F809C019
:103A80007A68CF6A3D2303FA0CF313603A6813682F
:103A900023F01F0313601368DB07FCD497F809C0F9
:103AA0007A683D2303FA0CF31360C0F30023820508
:103AB00048BF43F0020347058B600AD5726822F4C1
:103AC00000727260326843F0040342F400723260A4
:103AD0008B60020544BF43F008038B60470444BF7A
:103AE00043F020038B60C6041CD42A041FD40BBBF4
:103AF000302282F31188D4F88830002B40DDD4F8CE
:103B00008C1000293CD1013BC4F8883081F3118826
:103B100082F31188234B5B6813F4006333D183F382
:103B20001188F8BD43F0100328048B6002D543F0E0
:103B300040038B60302383F31188D4F88830002B46
:103B400025DDD4F88C3013BBC8690122C4F88C2061
:103B500068B16FF00102CB618262FDF741FAD4F8DF
:103B60008830002B16DDD4F88C30002B12DD0023BA
:103B7000C4F88C3083F31188BAE70B48FDF720F8BE
:103B80000A48FDF71DF8BDE8F840FDF729BF0848D1
:103B9000FDF716F80748FDF713F800BF44080020AA
:103BA0001009002000ED00E098470008A047000839
:103BB000C0460008D84600080000000000000000D1
:103BC000124A1068D168036810B501245A6080F861
:103BD00024400024136081F824408B698C68D060F5
:103BE0001B689A68A242FBD85A68C1E9003211608A
:103BF0005960EFF309830A6A643B9A4203D8BDE82F
:103C00001040FCF77FBB0248FCF7DAFF10090020E8
:103C1000E84600080000000000000000000000006E
:103C200070B5302383F311881A4BD3E92221114355
:103C300024D1DA680124C3F88C40D36A906202F17F
:103C40002C0C9C4508D192F82630D3B1BDE87040C9
:103C50000F20FDF785BA23461C6898699D68D462D9
:103C600083F8241000688668AE42FBD2456818606D
:103C700064455D602B604360E5D0ECE70648FCF7E7
:103C80009FFF92F825309B07E0D1D2E904310B6009
:103C90005960DBE710090020C8460008000000005A
:103CA000EFF3098305494A6B22F0010268334A6346
:103CB00083F30988002383F31188704700EF00E045
:103CC000524B53491A69DFF888C142F08702F0B4B9
:103CD0001A6118694F4C504F20F08700186118691D
:103CE000186B40F087001863186D40F08700186566
:103CF00000226FF050001D6D4A6088604748C86020
:103D00004FF4EE404A61086245484A6208604548FF
:103D1000454D62606FF00056A66001F5E051E56028
:103D2000626122626262C4F800C0426086604FF045
:103D30008056C56042613D4D0262426206604FF0AE
:103D4000FF304A603A4C8860CD604A610A624A623C
:103D50000A604FF440421C643A601A6842F0010263
:103D60001A601A689107FCD59968284A21F0030166
:103D70009960936813F00C03FBD111682D4801F092
:103D8000F9011160936050601368234943F0807318
:103D900013604B685A04FCD51C4A13689B01FCD580
:103DA000254B264C946003200021C2F88C00C2F8F9
:103DB00094101A68224B9A421ED0224B40F2037292
:103DC0001A60204A136803F00F03032BFAD10F4A3D
:103DD000936843F002039360936803F00C03082B8D
:103DE000FAD1536C43F480435364536E43F48043DD
:103DF0005366F0BC536E7047134A144B12689A42D4
:103E0000DBD1104B40F203121A60DAE700380240AF
:103E10000000024000040240007000400AAAAAAA62
:103E2000A000002800080240AAAAAA8AA0AAAAAA5A
:103E30000004001008190004002004E00010883875
:103E400011640020003C024000ED00E041C20F413F
:103E500080000010000000000000000000000000D2
:103E6000214B1A6962F087022DE980481A611A69AC
:103E700002F087021A611A691A6A62F080521A62A5
:103E80001A6A02F080521A624FF0FF301A6A5A6AB8
:103E9000586200215A6A59625A6A1A6C134842F0F1
:103EA00080521A641A6E42F080521A661A6E0268C4
:103EB00042F4807202601A6F02F44072B2F5007F21
:103EC00087B003D04FF480321A671967074C08494E
:103ED0006068084B20F400700022606006480A60A9
:103EE00003F1C0040CE000BF003802400070004045
:103EF000180C0020304800081060024053F80C0CE9
:103F000002600C339C4201F1080141F8042CF5D108
:103F1000C24BC349C348C44CDFF888A34FF0FF3CF1
:103F2000C3F808C0C3F80CC0C1F808C0C1F80CC081
:103F3000BE49702380F81A334FF08065C1E903222F
:103F4000C1E901224A610A62CA620126C0F88051B1
:103F50004FF48027056080F83233C0254023C0F835
:103F60008471476080F82653C0F8843143600E7036
:103F7000636A43F480736362656AAD4B25F48075B0
:103F8000656201F11808656AAA4DC1E90688DFF883
:103F90001883C1F828809E46DFF81083C1F830806E
:103FA000A5494FF0600880F81283C0F8807107605F
:103FB0004EF8041B03F16401C3E91111D961D963FF
:103FC00003F15401C3E90811996105F10C01C5E938
:103FD000031103F10C01C3E9031103F13001974808
:103FE0005A61C3E90C119649C160A1F5704169633A
:103FF0009449D9641021996303F17401C5E90B2236
:104000006A606A61EA614260C3E90A232E70067041
:104010001964C3F804E01E721B65216C8A4F41F0DD
:1040200008012164216E41F008012166216E874C50
:104030008749A06840F00800A06042F20F708862D3
:10404000C1F82CC08A614A63CA604A604E610E6042
:10405000CDE90122BA6003927E4ACDF800C000206B
:104060000021CDE90401C3E91DA23E700425684684
:10407000FCF7BEFDFCF7C4FD013DF8D1764A00987F
:10408000764BB86002F10C00C2E903007448186274
:10409000986303F1100018610420D861586303F19C
:1040A0002400586203F12800986203F13C00D863B1
:1040B00003F140006B49186403F1440058646A48F6
:1040C00008606A486A4C48606A495561C2E901550E
:1040D0001160694AA26314229A611C22C3E9003369
:1040E0009D605D61DD627C6025634FF0300A1A637C
:1040F0008AF3118862B6C4E90145C4E91D555F4BD6
:104100006563E561C4F88850D96864654FF6FF02BD
:1041100011405B4A4E48DFF898E10A43DA60D3F871
:10412000FC20584942F08072C3F8FC200A6842F033
:1041300001020A602022DA7783F822A0436AC4F8D9
:1041400058E01A4604F110014F4B24604FF0FF3E37
:10415000C4E9041104F16C008021C4F818E004F1F2
:10416000680E012604F1280CC4E91B00616403F504
:10417000DC70E167C4F868E004F14C0104F13C0E26
:104180009046A946414AC4F850C0A162C4E90889D2
:10419000C4F88C60C4F88450C4F80CE0E265A0F167
:1041A0006402C3F8C4213A4AC3F89421394AC3F8D7
:1041B000B421394AC3F8D42100F12C02C3F8E42118
:1041C00000F110024FF0020BE264E2622032C3E918
:1041D00072C1C3E97D56C3E97A22C3F8D831C3F866
:1041E0009851C3F8C061C3F8D041C3F8F051A3F8A7
:1041F000DCB183F8DE61A4F8606084F86260FCF7EB
:10420000EFFE87F800B0FEF7DBF885F31188234A4C
:1042100023484FF41071FEF7DBF94BE000600240D9
:104220000064024000E100E0003802400008002085
:104230007C08002044080020F449000834080020CD
:1042400000480140B10B0008F00B0020002004E002
:10425000000C004080F0FA02FC0B0020A00B0020B4
:10426000610E0008E80B002070180020008000207C
:1042700010090020E10D00081049000800ED00E0E1
:104280000003FA05001000E0A0090020000400204F
:10429000E10B00081D030008A8470008B11700083B
:1042A000301600200044004000200140162C02007F
:1042B00024490008134A14484FF41961FEF788F99D
:1042C000FDF79EFE8AF31188D4E92232134312D1FE
:1042D00041F288310820C4F88C60FCF771FFD4F8F3
:1042E00088305BB9D4F88C20002A07DDC4F88C3004
:1042F00083F31188E4E70548FCF762FC0448FCF707
:104300005FFC00BF21240008A00C0020C846000864
:10431000F8460008830730B548D0541E002A3FD025
:10432000CAB2034601E0013C3AD303F8012B9D07D2
:10433000F9D1032C2DD9CDB245EA05250F2C45EA3C
:10434000054536D9A4F1100222F00F0C03F1200E1E
:10435000E6444FEA121C03F1100242E9045542E917
:10436000025510327245F8D10CF1010214F00C0F15
:1043700003EB021204F00F0C13D0ACF1040323F092
:1043800003030433134442F8045B9342FBD10CF063
:1043900003042CB1C9B21C4403F8011B9C42FBD19D
:1043A00030BD64461346002CF4D1F9E703461446A9
:1043B000BFE71A46A446E0E7D0B5FCF7EBFA0C4B92
:1043C000002206460F46FCF757F8FCF7CDFB0446E3
:1043D000FCF7BEFA074B0022FCF74EF802460B46EC
:1043E00030463946FCF776F9FCF7BEFB2146D0BDD6
:1043F0000000F03D0000F0412DE9F047089E0D4619
:1044000004460F46002B4AD18A42944665D9B2FA37
:1044100082F343B102FA03FCC3F120029F4020FA69
:1044200002F217439C404FEA1C4E1FFA8CF5B7FB73
:10443000FEF1220C0EFB117742EA074201FB05F068
:1044400090420AD91CEB020201F1FF3780F01C8177
:10445000904240F2198102396244121AA4B2B2FBAE
:10446000FEF00EFB102244EA024400FB05F5A542D3
:104470000AD91CEB040400F1FF3280F00781A54249
:1044800040F204816444023840EA0140641B002188
:104490001EB1DC400023C6E90043BDE8F0878B4233
:1044A00008D9002E00F0ED800021C6E9000508467D
:1044B000BDE8F087B3FA83F1002949D1AB4202D3BA
:1044C000824200F2F880841A65EB0302012017464D
:1044D000002EE2D0C6E90047DFE702B9FFDEB2FAFC
:1044E00082F3002B40F090808A1A4FEA1C471FFA93
:1044F0008CFE0121B2FBF7F507FB1520220C42EAE6
:1045000000420EFB05F0904208D91CEB020205F1B7
:10451000FF3802D2904200F2CB804546121AA4B274
:10452000B2FBF7F007FB102244EA02440EFB00FE48
:10453000A64508D91CEB040400F1FF3202D2A645BF
:1045400000F2BB801046A4EB0E0440EA05409FE752
:10455000C1F120078B4022FA07FC4CEA030C05FA54
:1045600001F420FA07F3FD404FEA1C492343B5FB51
:10457000F9F81FFA8CFE09FB18551C0C44EA054497
:1045800008FB0EF5A54202FA01F200FA01F00BD980
:104590001CEB040408F1FF3A80F08880A54240F249
:1045A0008580A8F102086444641B9DB2B4FBF9F352
:1045B00009FB134445EA044403FB0EFEA64508D953
:1045C0001CEB040403F1FF356CD2A6456AD9023B0B
:1045D000644443EA0843A3FB0295A4EB0E04AC42F7
:1045E000C846AE4656D353D056B1B0EB080264EB82
:1045F0000E0404FA07F7CA40CC401743C6E900741A
:1046000018460021BDE8F087C3F1200102FA03FC3F
:1046100020FA01F225FA01F19D402A434FEA1C4796
:104620001FFA8CFEB1FBF7F007FB1015110C41EAE5
:10463000054100FB0EF58D4204FA03F408D91CEB8A
:10464000010100F1FF382FD28D422DD9023861448B
:10465000491B92B2B1FBF7F507FB151142EA014283
:1046600005FB0EF1914208D91CEB020205F1FF385F
:1046700016D2914214D9023D6244521A45EA0041D1
:1046800038E73146304608E73946E6E61046FBE6AD
:104690004845A9D2B9EB020865EB0C0E013BA3E734
:1046A0004546EAE72B4694E74046D1E7D0467BE70C
:1046B000023D624432E708460AE76444023842E7B2
:1046C00053562336000000005356233400000000E8
:1046D00053562331300000005356233700000000AA
:1046E0005356233131000000737461636B206F7681
:1046F0006572666C6F77000053562335000000002A
:10470000626C696E6B657200286E756C6C290000B6
:104710006D65616E203D2025660A0000736C6F7028
:1047200065203D202566205B636F756E74735D2C7C
:10473000202566205B6D762F6465675D0A000000AA
:1047400074656D70203D2025660A0000536572690E
:10475000616C206D616E616765720000486F686F03
:10476000686F0A004932435F61646472203D20250E
:10477000640A00004932435F61646472203D203066
:104780007825780A000000002566200A0000000055
:104790006E6F6E616D650000535623380000000097
:1047A000535623390000000069646C650000000066
:1047B000633000006F71577269746554696D656F7D
:1047C00075740000636853636852656164794900D9
:1047D0006368546864536C65657053006368436F25
:1047E0007265416C6C6F6346726F6D546F704900F7
:1047F00069715265616454696D656F75740000007C
:1048000063685654446F5365744900006368457685
:10481000745369676E616C49000000005F63746CDB
:104820000000000010600240086002400000000B21
:1048300028600240086002400006010C406002400F
:10484000086002400010020D5860024008600240FB
:104850000016030E706002400C6002400000040F5E
:10486000886002400C60024000060510A060024013
:104870000C60024000100611B86002400C6002405B
:104880000016072F10640240086402400000083838
:10489000286402400864024000060939406402406E
:1048A0000864024000100A3A58640240086402405A
:1048B00000160B3B706402400C64024000000C3C8C
:1048C000886402400C64024000060D44A06402406B
:1048D0000C64024000100E45B86402400C640240B3
:1048E00000160F460000010000000000000000005C
:1048F0000000000000000040000018000000000060
:104900000000000000000000000000001000000097
:10491000B04700080004002000080020A009002083
:10492000A00B00206D61696E002C04380404480857
:104930000C10141C20242526000000000000640434
:104940000100040000000000000C001028303400BA
:104950000A00000064000000E803000010270000C7
:10496000A086010040420F008096980000E1F50506
:1049700000CA9A3B244A00087018002070180020D2
:1049800070180020244A0008000000000000000009
:1049900000000000244A00080000000000000000A1
:1049A00000000000244A0008000000000000000091
:1049B00000000000244A0008000000000000000081
:1049C00000000000244A0008000000000000000071
:1049D00000000000244A0008000000000000000061
:1049E00000000000244A0008000000000000000051
:1049F000000000000000000091170008A11400084A
:104A000041160008711500085116000881150008AC
:0C4A1000A1170008B1140008210D0008D7
:084A1C00DCF9FF7F010000003E
:04000005080002FDF0
:00000001FF
